:100000000C947C000C9490000C9490000C94900044
:100010000C9490000C9490000C9490000C94900020
:100020000C9490000C9490000C9490000C94900010
:100030000C9490000C9490000C9490000C94900000
:100040000C9490000C9428030C9490000C94900055
:100050000C9490000C9490000C9490000C949000E0
:100060000C9490000C9490000C9490000C949000D0
:100070000C9490000C9490000C9490000C949000C0
:100080000C9490000C9490000C9490000C949000B0
:100090000C9490000C9490000C9490000C949000A0
:1000A0000C9490000C9490000C9490000C94900090
:1000B0000C9490000C9490000C9490000C94900080
:1000C0000C9490000C9490000C9490000C94900070
:1000D0000C9490000C9490000C9490000C94900060
:1000E0000C9490000C9492000C9497000C949E0237
:1000F0000C94A4000C94B10011241FBECFEFD1E2E8
:10010000DEBFCDBF00E00CBF13E1A0E0B2E001C054
:100110001D92A033B107E1F70E9445040C945304EB
:100120000C94000086E090E00E946203FBCF86E022
:1001300090E00E94620382E090E00E946E0380E003
:100140009DE70197F1F7F3CF82E090E00E94620310
:1001500086E090E00E946E0380E09DE70197F1F752
:10016000F3CF8091060290910702892B69F0F894F1
:10017000E0910A02F0910B02E45FFE4F84E090E010
:10018000918380830C94DC03089580E090E00895CF
:1001900080E090E008950895089520910202309142
:1001A000030281E090E02F30310511F080E090E013
:1001B0000895209102023091030281E090E0232B08
:1001C00011F080E090E00895CF93DF932091020238
:1001D000309103022F30310509F442C0E091020250
:1001E000F09103029F0121503109DC01CD91DC9196
:1001F000D901AA0FBB1FA45FBC4E4D915C91EE0FBD
:10020000FF1FE45FFC4ECA5FDE4F37FF14C0FC01E6
:1002100080819181220F331FF901E25FFC4E9183AF
:1002200080838091020290910302019690930302D1
:100230008093020215C068817981DA01AA5FBE4FFE
:100240004D915C916417750710F35291429153835D
:10025000428321503109DF0112974D915C91D5CF36
:10026000DF91CF9108958091020290910302892B32
:10027000A9F0E0910202F0910302EE0FFF1FE65F8A
:10028000FC4E808191812091020230910302215025
:100290003109309303022093020208950895EF92EA
:1002A000FF920F931F93CF93DF931F921F92CDB7AF
:1002B000DEB79A8389837901DC01149620E031E06E
:1002C000FD018901119201501040E1F7FC01ED5F41
:1002D000FE4F21EB30E020833197308331976083EC
:1002E000319770833197108230E032933F5F323222
:1002F000E1F784529F4FE981FA8193838283CF0192
:10030000865F9E4FDC0111967C936E930296DC0112
:1003100011961C921E92809100029091010291838D
:1003200080838091000290910102019690930102D6
:1003300080930002CF018A5F9E4FDC0111965C938F
:100340004E930296DC011196FC92EE92EC5FFE4F0A
:1003500081E090E091838083CE0101960E94E400C9
:100360000F900F90DF91CF911F910F91FF90EF9021
:1003700008959A01409104025091050240315105BF
:1003800041F1A0E1B3E0E0E0F0E04D915C91119724
:10039000452B31F03196A05FBE4FE031F105A9F752
:1003A000A0910402B09105021196B0930502A093AA
:1003B000040240E151E0E49FD001E59FB00DF49FBD
:1003C000B00D1124AB01BC01CD01845F9D4F0C9495
:1003D0004F01089510920502109204021092070234
:1003E000109206021092090210920802ECE0F2E06C
:1003F00080E191E0DF019C011D9221503040E1F746
:10040000DF01AC5FBE4F1D921C92E05FFE4F33E1F7
:10041000EC30F30779F70895CF93DF9380910602CC
:1004200090910702892B09F065C080910402909198
:100430000502892B09F45EC0F89481E090E0909366
:100440000702809306020E943104C1E0D0E0E091EF
:100450000A02F0910B02DF01A45FBE4F11961C92BD
:100460001E928281938190932D1380932C130E946E
:100470008703E0910A02F0910B0280912C13909176
:100480002D1393838283DF01A45FBE4F8D919C91D6
:1004900082309105F9F0A0F40097E1F00197B9F6E8
:1004A000DF01A85FBE4F4D915C91119712976D913E
:1004B0007C91E65FFE4F808191810E94B901C7CF98
:1004C0008330910581F0049711F6EC5FFE4F1182A5
:1004D00010820DC0EC5FFE4FD183C0838AE092E0B2
:1004E0000E94E40004C0EC5FFE4F918380830E9471
:1004F0003104ADCFDF91CF91089520910602309164
:100500000702232BC1F0F89420910A0230910B02CC
:10051000F901E45FFE4FA1E0B0E0B183A083329720
:1005200091838083349771836083329651834083B3
:100530000E94DC0308950E94B901089541E050E053
:1005400068E070E084EA90E00E947D0241E050E0C3
:1005500068E070E087E990E00E947D0241E050E0B1
:1005600069E070E082E990E00E947D020C94B100A5
:100570008091060290910702892B69F0F894E0912E
:100580000A02F0910B02E45FFE4F82E090E091835B
:1005900080830C94DC0308952091060230910702B9
:1005A000232B89F0F89420910A0230910B02F90173
:1005B000E45FFE4F43E050E05183408332969183E5
:1005C00080830C94DC030895ECE0F2E020E030E05E
:1005D000408151814817590771F480E191E0289FCB
:1005E000F001299FF00D389FF00D1124EC5EFC4FB7
:1005F0008081918108952F5F3F4FE05FFE4F203152
:10060000310531F78FEF9FEF08950E9450030E944C
:1006100056030E945C03F89410928000E1E8F0E039
:100620001082109285001092840083E294EF9093E0
:1006300089008093880080818860808380818460C5
:100640008083EFE6F0E08081826080837894089573
:100650001F920F920FB60F9211240BB60F922F9389
:100660003F934F935F936F937F938F939F93AF933A
:10067000BF93EF93FF930E94B802FF91EF91BF9158
:10068000AF919F918F917F916F915F914F913F912A
:100690002F910F900BBE0F900FBE0F901F901895CB
:1006A000EAE0F1E08081846080830895EAE0F1E08F
:1006B0008081806480830895EAE0F1E08081806237
:1006C00080830895EBE0F1E0908121E030E001C00B
:1006D000220F8A95EAF7292B20830895EBE0F1E0B9
:1006E000908121E030E001C0220F8A95EAF7209541
:1006F000292320830895EBE0F1E0908121E030E0B0
:1007000001C0220F8A95EAF72927208308950F92C6
:100710001F922F923F924F925F926F927F928F9291
:100720009F92AF92BF92CF92DF92EF92FF920F9380
:100730001F932F933F934F935F936F937F938F9369
:100740009F93AF93BF93CF93DF93EF93FF930FB735
:100750000F93FCB7FF93EDB7FEB7E0932E13F09322
:100760002F13E0912C13F0912D13EDBFFEBFFF91DD
:10077000FCBF0F910FBFFF91EF91DF91CF91BF9120
:10078000AF919F918F917F916F915F914F913F9129
:100790002F911F910F91FF90EF90DF90CF90BF901E
:1007A000AF909F908F907F906F905F904F903F9011
:1007B0002F901F900F9018950F921F922F923F929B
:1007C0004F925F926F927F928F929F92AF92BF9261
:1007D000CF92DF92EF92FF920F931F932F933F934D
:1007E0004F935F936F937F938F939F93AF93BF9339
:1007F000CF93DF93EF93FF930FB70F93FCB7FF9364
:10080000EDB7FEB7E0932C13F0932D13E0912E1368
:10081000F0912F13EDBFFEBFFF91FCBF0F910FBFF3
:10082000FF91EF91DF91CF91BF91AF919F918F9108
:100830007F916F915F914F913F912F911F910F91F8
:10084000FF90EF90DF90CF90BF90AF909F908F90F0
:100850007F906F905F904F903F902F901F900F90E0
:1008600008950E94330190930B0280930A02FC01C9
:100870002281338130932D1320932C13EC5FFE4F94
:1008800082E090E09183808308950E9405030E9496
:10089000EA0141E050E060E070E08EE992E00E9401
:0A08A0007D020C940C02F894FFCFC7
:00000001FF
