:100000000C947C000C9490000C9490000C94900044
:100010000C9490000C9490000C9490000C94900020
:100020000C9490000C9490000C9490000C94900010
:100030000C9490000C9490000C9490000C94900000
:100040000C9490000C94FF020C9490000C9490007F
:100050000C9490000C9490000C9490000C949000E0
:100060000C9490000C9490000C9490000C949000D0
:100070000C9490000C9490000C9490000C949000C0
:100080000C9490000C9490000C9490000C949000B0
:100090000C9490000C9490000C9490000C949000A0
:1000A0000C9490000C9490000C9490000C94900090
:1000B0000C9490000C9490000C9490000C94900080
:1000C0000C9490000C9490000C9490000C94900070
:1000D0000C9490000C9490000C9490000C94900060
:1000E0000C9490000C9492000C948D020C94970048
:1000F0000C94A4000C94B10011241FBECFEFD1E2E8
:10010000DEBFCDBF00E00CBF13E1A0E0B2E001C054
:100110001D92A031B107E1F70E941C040C942A043F
:100120000C94000086E090E00E943903FBCF86E04B
:1001300090E00E94390382E090E00E94450380E055
:100140009DE70197F1F7F3CF82E090E00E94390339
:1001500086E090E00E94450380E09DE70197F1F77B
:10016000F3CF8091060290910702892B69F0F894F1
:10017000E0910A02F0910B02E45FFE4F83E090E011
:10018000918380830C94B3030895209102023091EF
:10019000030281E090E02F30310511F080E090E023
:1001A0000895209102023091030281E090E0232B18
:1001B00011F080E090E00895CF93DF932091020248
:1001C000309103022F30310509F442C0E091020260
:1001D000F09103029F0121503109DC01CD91DC91A6
:1001E000D901AA0FBB1FA451BD4E4D915C91EE0FDA
:1001F000FF1FE451FD4ECA5FDE4F37FF14C0FC0104
:1002000080819181220F331FF901E251FD4E9183CC
:1002100080838091020290910302019690930302E1
:100220008093020215C068817981DA01AA5FBE4F0E
:100230004D915C916417750710F35291429153836D
:10024000428321503109DF0112974D915C91D5CF46
:10025000DF91CF9108958091020290910302892B42
:10026000A9F0E0910202F0910302EE0FFF1FE651A8
:10027000FD4E808191812091020230910302215034
:100280003109309303022093020208950895EF92FA
:10029000FF920F931F93CF93DF931F921F92CDB7BF
:1002A000DEB79A8389837901DC01149620E031E07E
:1002B000FD018901119201501040E1F7FC01ED5F51
:1002C000FE4F21EB30E020833197308331976083FC
:1002D000319770833197108230E032933F5F323232
:1002E000E1F784529F4FE981FA8193838283CF01A2
:1002F000865F9E4FDC0111967C936E930296DC0123
:1003000011961C921E92809100029091010291839D
:1003100080838091000290910102019690930102E6
:1003200080930002CF018A5F9E4FDC0111965C939F
:100330004E930296DC011196FC92EE92EC5FFE4F1A
:1003400081E090E091838083CE0101960E94DC00E1
:100350000F900F90DF91CF911F910F91FF90EF9031
:1003600008959A01409104025091050240315105CF
:1003700041F1A0E1B3E0E0E0F0E04D915C91119734
:10038000452B31F03196A25FBE4FE031F105A9F760
:10039000A0910402B09105021196B0930502A093BA
:1003A00004024EE051E0E49FD001E59FB00DF49FC0
:1003B000B00D1124AB01BC01CD01845F9D4F0C94A5
:1003C000470108951092050210920402109207024C
:1003D000109206021092090210920802ECE0F2E07C
:1003E0008EE091E0DF019C011D9221503040E1F749
:1003F000DF01AC5FBE4F1D921C92E25FFE4F32E107
:10040000EC3EF30779F70895CF93DF9380910602CE
:1004100090910702892B09F05CC0809104029091B1
:100420000502892B09F455C0F89481E090E090937F
:100430000702809306020E940804C1E0D0E0E09128
:100440000A02F0910B02DF01A45FBE4F11961C92CD
:100450001E928281938190930D1380930C130E94BE
:100460005E03E0910A02F0910B0280910C139091CF
:100470000D1393838283DF01A45FBE4F8D919C9106
:100480008130910559F0D0F082309105B9F0039791
:10049000B1F6EC5FFE4F1182108218C0DF01A85F39
:1004A000BE4F4D915C91119712976D917C91E65FD3
:1004B000FE4F808191810E94B101C1CFEC5FFE4F60
:1004C000D183C0838AE092E00E94DC000E9408048D
:1004D000B6CFDF91CF9108952091060230910702A7
:1004E000232BC1F0F89420910A0230910B02F901FC
:1004F000E45FFE4FA1E0B0E0B183A0833297918327
:1005000080833497718360833296518340830E9445
:10051000B30308950E94B101089541E050E068E0FE
:1005200070E084EA90E00E946C0241E050E068E0F4
:1005300070E087E990E00E946C0241E050E069E0E1
:1005400070E082E990E00E946C020C94B10080910E
:10055000060290910702892B69F0F894E0910A0253
:10056000F0910B02E45FFE4F82E090E09183808384
:100570000C94B3030895ECE0F2E020E030E0408119
:1005800051814817590771F48EE091E0289FF001DE
:10059000299FF00D389FF00D1124EC5EFC4F8081F7
:1005A000918108952F5F3F4FE25FFE4F203131056B
:1005B00031F78FEF9FEF08950E9427030E942D03CC
:1005C0000E943303F89410928000E1E8F0E010827A
:1005D000109285001092840083E294EF909389003A
:1005E000809388008081886080838081846080839C
:1005F000EFE6F0E0808182608083789408951F9216
:100600000F920FB60F9211240BB60F922F933F93B8
:100610004F935F936F937F938F939F93AF93BF930A
:10062000EF93FF930E94A702FF91EF91BF91AF91CB
:100630009F918F917F916F915F914F913F912F91FA
:100640000F900BBE0F900FBE0F901F901895EAE011
:10065000F1E08081846080830895EAE0F1E08081A8
:10066000806480830895EAE0F1E080818062808385
:100670000895EBE0F1E0908121E030E001C0220F2D
:100680008A95EAF7292B20830895EBE0F1E0908129
:1006900021E030E001C0220F8A95EAF72095292356
:1006A00020830895EBE0F1E0908121E030E001C08B
:1006B000220F8A95EAF72927208308950F921F9227
:1006C0002F923F924F925F926F927F928F929F9262
:1006D000AF92BF92CF92DF92EF92FF920F931F9350
:1006E0002F933F934F935F936F937F938F939F933A
:1006F000AF93BF93CF93DF93EF93FF930FB70F9316
:10070000FCB7FF93EDB7FEB7E0930E13F0930F1312
:10071000E0910C13F0910D13EDBFFEBFFF91FCBFF4
:100720000F910FBFFF91EF91DF91CF91BF91AF91EB
:100730009F918F917F916F915F914F913F912F91F9
:100740001F910F91FF90EF90DF90CF90BF90AF90EF
:100750009F908F907F906F905F904F903F902F90E1
:100760001F900F9018950F921F922F923F924F92C9
:100770005F926F927F928F929F92AF92BF92CF9231
:10078000DF92EF92FF920F931F932F933F934F931C
:100790005F936F937F938F939F93AF93BF93CF9309
:1007A000DF93EF93FF930FB70F93FCB7FF93EDB772
:1007B000FEB7E0930C13F0930D13E0910E13F0913C
:1007C0000F13EDBFFEBFFF91FCBF0F910FBFFF9155
:1007D000EF91DF91CF91BF91AF919F918F917F91D9
:1007E0006F915F914F913F912F911F910F91FF90CA
:1007F000EF90DF90CF90BF90AF909F908F907F90C1
:100800006F905F904F903F902F901F900F900895A2
:100810000E942B0190930B0280930A02FC0122811B
:10082000338130930D1320930C13EC5FFE4F82E065
:1008300090E09183808308950E94DC020E94E2018F
:1008400041E050E060E070E08DE892E00E946C02D0
:080850000C940402F894FFCFA0
:00000001FF
