:100000000C949F000C94C0000C94C0000C94C00091
:100010000C94C0000C94C0000C94C0000C94C00060
:100020000C94C0000C94C0000C94C0000C94C00050
:100030000C94C0000C94C0000C94C0000C94C00040
:100040000C94C0000C94F6060C94C0000C94C000F4
:100050000C94C0000C94C0000C94C0000C94C00020
:100060000C94C0000C94C0000C94C0000C94C00010
:100070000C94C0000C94C0000C94C0000C94C00000
:100080000C9489070C94C0000C94C0000C94C00020
:100090000C94C0000C94C0000C94C0000C94C000E0
:1000A0000C94C0000C94C0000C94C0000C94C000D0
:1000B0000C94C0000C94C0000C94C0000C94C000C0
:1000C0000C94C0000C94C0000C94C0000C94C000B0
:1000D0000C94C0000C94C0000C94C0000C94C000A0
:1000E0000C94C0008C0424038C0436038003450365
:1000F0001C03C803EA03FF03020426043B040C9418
:100100003B040C9480030C948C040C946C010C94B0
:1001100036030C9402040C94A6070C94A1070C94CB
:1001200026040C94FF030C94EA030C9424030C940F
:1001300045030C94A0070C94C8030C941C031124D1
:100140001FBECFEFD1E2DEBFCDBF00E00CBF12E09B
:10015000A0E0B2E0ECE4F6E100E00BBF02C00790E3
:100160000D92A430B107D9F714E1A4E0B2E001C0C8
:100170001D92A93FB107E1F70E94FA0A0C94240BE3
:100180000C9400000F921F922F923F924F925F9219
:100190006F927F928F929F92AF92BF92CF92DF9297
:1001A000EF92FF920F931F932F933F934F935F9381
:1001B0006F937F938F939F93AF93BF93CF93DF936F
:1001C000EF93FF930FB70F93FCB7FF93EDB7FEB715
:1001D000E093F514F093F614E091D314F091D41455
:1001E000EDBFFEBFFF91FCBF0F910FBFFF91EF91DD
:1001F000DF91CF91BF91AF919F918F917F916F913F
:100200005F914F913F912F911F910F91FF90EF9030
:10021000DF90CF90BF90AF909F908F907F906F9026
:100220005F904F903F902F901F900F9018950F92D6
:100230001F922F923F924F925F926F927F928F9276
:100240009F92AF92BF92CF92DF92EF92FF920F9365
:100250001F932F933F934F935F936F937F938F934E
:100260009F93AF93BF93CF93DF93EF93FF930FB71A
:100270000F93FCB7FF93EDB7FEB7E093D314F09361
:10028000D414E091F514F091F614EDBFFEBFFF9188
:10029000FCBF0F910FBFFF91EF91DF91CF91BF9105
:1002A000AF919F918F917F916F915F914F913F910E
:1002B0002F911F910F91FF90EF90DF90CF90BF9003
:1002C000AF909F908F907F906F905F904F903F90F6
:1002D0002F901F900F900895809114029091150215
:1002E000892B69F0F894E0911602F0911702E25F11
:1002F000FE4F84E090E0918380830C941701089571
:10030000EF92FF920F931F93CF93DF931F921F9251
:10031000CDB7DEB79A8389837901DC01149620E09A
:1003200031E0FD018901119201501040E1F7FC011B
:10033000ED5FFE4F2CE631E020833197308331971B
:100340006083319770833197108230E032933F5F42
:100350003232E1F784529F4FE981FA81938382839D
:10036000CF01845F9E4FDC0111967C936E930296C1
:10037000DC0111961C921E92809110029091110244
:1003800091838083CF018A5F9E4FDC0111965C933D
:100390004E930296DC0111965C934E930296DC011B
:1003A0001196FC92EE92529611961C921E92149700
:1003B00083E690E011969C938E9380911202909127
:1003C00013020196909313028093120280911002FF
:1003D0009091110201969093110280931002EC5FAC
:1003E000FE4F81E090E09183808348E052E063EB30
:1003F00074E1CE0101960E948608E981FA8180812C
:1004000091810F900F90DF91CF911F910F91FF90ED
:10041000EF9008959A0140911202509113024031D9
:100420005105F9F0ACE8B3E0E0E0F0E04D915C910B
:100430001197452B31F03196A05EBE4FE031F105AA
:10044000A9F740E251E0E49FD001E59FB00DF49F91
:10045000B00D1124AB01BC01CD0188579D4F0C9408
:1004600080010895FC0180910E0290910F0291830A
:10047000808381E090E09383828380910E0290914B
:100480000F02019690930F0280930E02808191815A
:100490000895FC0180910C0290910D02918380835C
:1004A00081E090E0938382831582148280910C0214
:1004B00090910D02019690930D0280930C02808121
:1004C0009181089510921302109212021092150257
:1004D0001092140210920F0210920E0210920D024E
:1004E00010920C021092110210921002E8E8F2E051
:1004F00020E231E083E690E0DF01A9011D92415046
:100500005040E1F7DF01AC5FBE4F11961C921E9286
:1005100054968D939C9311821082E05EFE4F54E1BD
:10052000E838F50749F7E8E4F2E088E0DF01482F12
:100530001D924A95E9F713821282389652E0E83804
:10054000F507A1F7E8E1F2E086E0DF01482F1D9210
:100550004A95E9F713821282369652E0E834F5079D
:10056000A1F7089581E090E00E94240B2F923F9222
:100570004F925F926F927F928F929F92AF92BF92B3
:10058000CF92DF92EF92FF920F931F93CF93DF935F
:100590008091140290911502892B09F094C28091E8
:1005A000120290911302892B09F48DC2F89481E014
:1005B00090E090931502809314020E94ED0940E2AE
:1005C000E42EFF24F39401E010E053E6852E912CF5
:1005D00062E0C62ED12C76E0272E312CEAE0AE2E3A
:1005E000B12CE0911602F0911702DF01A25FBE4F1D
:1005F00011961C921E92828193819093D4148093C1
:10060000D3140E94C200C0911602D09117028091AB
:10061000D3149091D4149B838A83FE01E25FFE4F32
:10062000808191818D309105E0F6FC018827EE589C
:10063000FF4F8F4F0C941C0BE8E8F2E080E090E055
:10064000DE01A25EBE4F53C0FE01E65FFE4F408159
:1006500051813497608171813696808191810E94A9
:100660000A02C05FDE4F99838883BBCFCC5FDE4F29
:1006700083E090E09983888346E052E063E974E187
:1006800086E192E00E940C0853C128813981DE0185
:10069000A25EBE4F8D919C9111972817390721F4C6
:1006A000FE01E45EFE4F51C1E8E8F2E080E090E038
:1006B0002D913C911197408151814217530709F4C4
:1006C0003AC10196E05EFE4F8031910589F7FE0147
:1006D000E45EFE4F80819181892B09F482CF1CC199
:1006E0000196E05EFE4F8031910509F47ACF2D919D
:1006F0003C911197408151814217530789F728C1D6
:10070000FE01E85FFE4F1182108232971182108243
:10071000CC5FDE4F39822882C8E4D2E0E091160235
:10072000F0911702808191812C813D812817390732
:1007300041F488819981EA5EFE4F918380830E9413
:10074000090A289682E0C838D80741F7E0911602D6
:10075000F0911702DF01AC5FBE4F11961C921E9202
:10076000549611969C928E9250971196BC92AE928E
:1007700012971196BC92AE92118210828091120251
:100780009091130201979093130280931202D0C0AC
:1007900080910E0290910F020897B9F0E8E4F2E020
:1007A00080E090E022813381232B29F00196389656
:1007B00088309105B9F733E0880F991F3A95E1F732
:1007C000885B9D4F0E9432022C01C05FDE4F598230
:1007D000488207CFFE01EA5EFE4F20813181E8E4C6
:1007E000F2E080E090E0408151814217530709F424
:1007F000D7C00196389688309105A9F7F2CE0E94AD
:10080000090AEFCE80910C0290910D020897C9F071
:10081000E8E1F2E020E030E082819381892B31F041
:100820002F5F3F4F369628303105B1F746E0429FA3
:10083000C001439F900D1124885E9D4F0E94490284
:100840003C01C05FDE4F79826882CBCEFE01E65E5E
:10085000FE4F20813181E8E1F2E080E090E04081CC
:1008600051814217530709F4F5C001963696883036
:100870009105A9F7B6CEFE01E65EFE4F408151819B
:10088000E8E1F2E080E090E0208131812417350733
:1008900031F00196369688309105B1F7A2CEE0EAA4
:1008A000F3E020E030E0608171816417750709F0A2
:1008B000F6C02E9DA0012F9D500D3E9D500D112480
:1008C0009A0128573D4FF901EC5FFE4F11830083D9
:1008D00074969182808266E0689FA001699F500DA6
:1008E0001124FA01E85EFD4F15821482FE01E85FD3
:1008F000FE4F80819181F901E85FFE4F4081518177
:100900004817590708F06DCEF901E45EFE4F80816B
:100910009181892B09F065CECC5FDE4F1983088366
:1009200048E052E063EB74E186E192E00E948608C1
:100930000E94ED0956CE8E9D90018F9D300D9E9D9B
:10094000300D1124F901EC55FC4F11830083BFCE0B
:100950008E9D90018F9D300D9E9D300D1124C901FB
:1009600088579D4FFC01E45EFE4F2081318121308C
:10097000310509F036CE11821082FE01E85FFE4F8C
:1009800040815181FC01E85FFE4F80819181841795
:10099000950708F026CECC5FDE4F39832883C0CF81
:1009A00023E0880F991F2A95E1F7FC01E85BFD4FD2
:1009B00082819381019739F4D382C282888199819F
:1009C0009583848307C04481558188819981481724
:1009D000590731F48681978101969783868301CEEA
:1009E000E8E8F2E020E030E080819181841795070B
:1009F00019F44115510539F42F5F3F4FE05EFE4F6A
:100A00002031310589F7DE01A85FBE4F8D919C91A1
:100A100011972E9DF0012F9DF00D3E9DF00D11249C
:100A2000E057FC4F208131818217930720F48D918C
:100A30009C9191838083CC5FDE4F84E090E099832A
:100A4000888344E052E065ED74E186E192E00E9423
:100A5000D3076ECF46E0489FF001499FF00D112467
:100A6000E85EFD4F84819581892B09F0BACD8281A2
:100A70009381029719F413830283B3CDDE01A85E3C
:100A8000BE4F11963C932E938881998195838483E0
:100A9000CC5FDE4F85E090E09983888341CF2F5F64
:100AA0003F4FE05EFE4F2031310509F0FCCE46E0BD
:100AB000489F9001499F300D1124F901E85EFD4FD8
:100AC000D382C2828ECDDF91CF911F910F91FF9083
:100AD000EF90DF90CF90BF90AF909F908F907F90DE
:100AE0006F905F904F903F902F90089580911402E7
:100AF00090911502892BB1F0F894E0911602F091D3
:100B00001702E25FFE4F87E090E0918380830E94AE
:100B10001701E0911602F0911702E05FFE4F80810D
:100B20009181089508952091140230911502232B8C
:100B300089F0F8942091160230911702F901E25FD2
:100B4000FE4F48E050E05183408338969183808384
:100B50000C94170108952091140230911502232B53
:100B600089F0F8942091160230911702F901E25FA2
:100B7000FE4F49E050E05183408338969183808353
:100B80000C94170108958091140290911502892BFD
:100B9000B1F0F894E0911602F0911702E25FFE4F77
:100BA0008AE090E0918380830E941701E091160211
:100BB000F0911702E05FFE4F8081918108950895C2
:100BC0002091140230911502232B89F0F894209182
:100BD000160230911702F901E25FFE4F4BE050E040
:100BE000518340833C96918380830C941701089530
:100BF0002091140230911502232B89F0F894209152
:100C0000160230911702F901E25FFE4F4CE050E00E
:100C1000518340833C96918380830C9417010895FF
:100C20002091140230911502232B01F1F8942091A8
:100C3000160230911702F901E25FFE4FA1E0B0E029
:100C4000B183A083329791838083369771836083C9
:100C50003496518340830E941701E0911602F0916F
:100C60001702E05FFE4F8081918108950C940A0283
:100C70008091140290911502892B69F0F894E0910B
:100C80001602F0911702E25FFE4F82E090E091833E
:100C900080830C9417010895CF93DF93EC0180912A
:100CA000140290911502892B81F1F894209116027B
:100CB00030911702F901E25FFE4F83E090E09183EB
:100CC00080838091940090919500E0910A02F091C8
:100CD0000B0261E772E00E94080BCE01860F971F9E
:100CE00064E670E00E94080BE60FF71FD901AE5EC4
:100CF000BE4F1196FC93EE93F901EC5EFE4F91838B
:100D00008083DF91CF910C941701DF91CF910895EB
:100D10002091140230911502232B89F0F894209130
:100D2000160230911702F901E25FFE4F45E050E0F4
:100D3000518340837096918380830C9417010895AA
:100D40002091140230911502232B89F0F894209100
:100D5000160230911702F901E25FFE4F46E050E0C3
:100D6000518340837096918380830C94170108957A
:100D7000E0911602F0911702E65FFE4F80819181AB
:100D80000895F89410928000E1E8F0E0108210924B
:100D900085001092840080E792E090938900809310
:100DA0008800808188608083808184608083EFE612
:100DB000F0E080818260808310929000E1E9F0E0B1
:100DC0001082109295001092940083E294EF909319
:100DD00099008093980080818860808380818460FE
:100DE000808382E080937100789408951F920F921F
:100DF0000FB60F9211240BB60F92EF92FF920F9342
:100E00001F932F933F934F935F936F937F938F9392
:100E10009F93AF93BF93EF93FF93CF93DF9300D054
:100E20001F92CDB7DEB7809106029091070201971D
:100E30009C838B8321E7E22E22E0F22E01E010E07A
:100E40008B819C8197FD46C0EB81FC81EE0FFF1FDB
:100E5000ED56FB4E0190F081E02DEE5EFE4F2081BD
:100E6000318180910A0290910B028217930790F1D1
:100E7000EB81FC81EE0FFF1FED56FB4E0190F081E0
:100E8000E02DEC5EFE4F20813181809194009091A5
:100E90009500B7010E94080B62177307D8F066E04F
:100EA00072E083E994E10E946C099A838983FC01D2
:100EB000EC5FFE4F1183008348E052E063EB74E186
:100EC000CE0101960E9486088B819C8101979C83AC
:100ED0008B83B6CF0E9438060F900F900F900F9023
:100EE000DF91CF91FF91EF91BF91AF919F918F9142
:100EF0007F916F915F914F913F912F911F910F9132
:100F0000FF90EF900F900BBE0F900FBE0F901F90B1
:100F100018951F920F920FB60F9211248F939F93E3
:100F200080910A0290910B02019690930B0280939C
:100F30000A029F918F910F900FBE0F901F901895EE
:100F4000FFCF81E00E94D3090C946C010E94C1097B
:100F500041E050E061E070E081EA97E00E94100615
:100F600041E050E06AE070E080EA97E00E941006FD
:100F70009093F8148093F7140C946C01FC01208179
:100F8000318181E090E02F30310511F080E090E078
:100F90000895FC012081318181E090E0232B11F044
:100FA00080E090E008950F931F93CF93DF93EA01C1
:100FB000288139812F30310551F128813981F9019A
:100FC0003197A901D901AA0FBB1FA60FB71F415026
:100FD000510957FD07C01E910E9113961C930E9355
:100FE0001297F5CFDC018D919C9137FF02C020E074
:100FF00030E0E21BF30B3196EE0FFF1FE60FF71FF9
:101000009183808388819981019699838883DF9178
:10101000CF911F910F9108958F929F92AF92BF929F
:10102000CF92DF92EF92FF920F931F93CF93DF93B4
:10103000EA01288139812F30310509F45AC028810D
:10104000398121503109DC01AD90BC90F901EE0FDE
:10105000FF1FDB01AE0FBF1F8D909C903296E60FF5
:10106000F71FA5014E5E5E4FBCEEAB1ABEEFBB0A8A
:1010700037FF12C0FC01808191812F5F3F4F220F0B
:10108000331FFB01E20FF31F9183808388819981D5
:101090000196998388832DC0DA01CD90DC9084017C
:1010A0000E5E1E4FD801ED90FC90EC14FD0458F438
:1010B000B291A291B383A28321503109DF0112972B
:1010C0008D909C90D5CFDA01ED90FC90D8010D91D8
:1010D0001C91E016F10670F2D5010D911C91D4011E
:1010E000AC5EBE4F0D90BC91A02D0A171B0700F7F8
:1010F000C1CFDF91CF911F910F91FF90EF90DF90C3
:10110000CF90BF90AF909F908F9008950F931F93B3
:10111000CF93DF93FA01208131812F30310509F41B
:1011200041C02081318121503109FC0100811181B0
:10113000E901CC0FDD1FFB01EC0FFD1FA081B18188
:10114000FE013296E60FF71FE801C85FDE4F37FF5A
:1011500013C0FC01808191812F5F3F4F220F331F0D
:10116000FB01E20FF31F91838083FA01808191815B
:1011700001969183808316C008811981A85FBE4FB4
:101180000D90BC91A02D0A171B0718F3B291A291E4
:10119000B383A28321503109DF0112970D90BC91D6
:1011A000A02DD5CFDF91CF911F910F910895CF93AF
:1011B000DF93DB012D913C911197232BD9F1ED9118
:1011C000FC9111979F0121503109EE0FFF1FE80F8D
:1011D000F91F37FD2FC072916291EB01CA5EDE4F9D
:1011E0000990D881C02DC417D50751F46115710538
:1011F00009F1A901440F551FFC01E40FF51F03C0BD
:1012000021503109E6CF8D919C91119701972817B4
:1012100039073CF482819381819391932F5F3F4FF3
:10122000F2CF8D919C911197019711969C938E937B
:10123000CB0102C080E090E0DF91CF910895CF9381
:10124000DF93DB012D913C911197232B09F43FC0D3
:10125000ED91FC9111979F0121503109EE0FFF1F75
:10126000E80FF91F37FD33C052914291EA01C45E85
:10127000DE4F68817981672B81F468976881798175
:101280006130710551F44115510509F1B901660F3D
:10129000771FFC01E60FF71F03C021503109E2CF91
:1012A0008D919C9111970197281739073CF4828101
:1012B0009381819391932F5F3F4FF2CF8D919C91BA
:1012C0001197019711969C938E93CA0102C080E0FA
:1012D00090E0DF91CF910895DB012D913C91119722
:1012E000232BA9F02D913C911197F901E150F04881
:1012F000EE0FFF1FE80FF91F808191812D913C9126
:1013000011972150310911963C932E930895089519
:1013100008950895089508950895089508950895E5
:101320000895089508950895089583E390E09093B3
:1013300035018093340188E18093310186E0809308
:101340003201E0E3F1E080818D7F80830895909108
:10135000300195FFFCCF80933601089580913001D4
:1013600087FFFCCF809136010895CF93DF93EC0186
:101370008991882319F00E94A709FACFDF91CF91B4
:10138000089583E390E09093CD008093CC0088E1B2
:101390008093C90086E08093CA00E8ECF0E0808189
:1013A0008D7F808308959091C80095FFFCCF809336
:1013B000CE0008958091C80087FFFCCF8091CE00B9
:1013C0000895CF93DF93EC018991882319F00E944F
:1013D000D309FACFDF91CF91089568E072E083EBF3
:1013E00094E10E941F0990931702809316020097C0
:1013F00011F40E94B202FC01228133813093D41493
:101400002093D314EC5FFE4F82E090E091838083C1
:1014100008950F931F93CF93DF931F921F92CDB721
:10142000DEB7E0911602F0911702DF01AA5EBE4F0F
:101430004D915C91A8E4B2E000E010E08D919C91A8
:1014400011978417950739F00F5F1F4F18960830D2
:101450001105A1F7C8C08081918123E0000F111F01
:101460002A95E1F7085B1D4FD80114962D913C9108
:1014700015972817390709F0B6C0EC5FFE4F808139
:101480009181069709F04AC064E072E085ED94E12D
:101490000E94D7089A838983009781F4D801179610
:1014A0001C921E92169781E090E013969C938E9367
:1014B000129715961C921E92149795C041E050E029
:1014C000F80157834683DC012D913C9135832483B9
:1014D0002091160230911702D901A85FBE4F6D917D
:1014E0007C911197FC01E85FFE4F71836083349714
:1014F00051834083F901EA5FFE4F8081918111960B
:101500009C938E9332975183408348E052E063EB83
:1015100074E1CE0101960E94860865C0F8018681BB
:1015200097818230910520F00197978386835BC075
:1015300064E072E085ED94E10E94D7089A83898384
:1015400020911602309117020097C1F481E090E0DB
:10155000D80113969C938E93129717961C921E9205
:10156000169715961C921E921497F901EA5FFE4F8A
:101570008081918132969183808335C041E050E033
:10158000F80157834683DC016D917C9175836483F8
:10159000D901A85FBE4F6D917C911197FC01E85F66
:1015A000FE4F71836083349751834083F901EA5F72
:1015B000FE4F8081918111969C938E933297518337
:1015C000408348E052E063EB74E1CE0101960E9453
:1015D000860848E052E063EB74E186E192E00E9405
:1015E00086080E94ED090F900F90DF91CF911F9117
:1015F0000F9108950E94C1060E94620241E050E0EE
:1016000060E070E086EA97E00E9410060C94B60253
:10161000AA1BBB1B51E107C0AA1FBB1FA617B70718
:1016200010F0A61BB70B881F991F5A95A9F7809534
:101630009095BC01CD010895EE0FFF1F881F8BBF51
:0C1640000790F691E02D1994F894FFCF6C
:04164C000100FF009A
:00000001FF
